:060000000A128A110C280F
:10000800FE00030EF1000A08F2000A128A11E02924
:100018000A128A110F28FA0183120313BE01830101
:100028000A128A1117280A128A1120210A128A1123
:10003800203083120313B400B40B20280000C3300F
:10004800831203139F059F149F182B282C282828F8
:100058001E08B400B5013408B6003508B7003708E3
:10006800A9003608A8000030AA00AB00FF30AC0099
:100078000030AD007D30AE000030AF00FA30B00087
:100088000030B1000A128A1182210A128A118312E1
:1000980003132908B9002808B800380895001A3051
:1000A80083120313B500F730B400B40B5928B50B0D
:1000B80059285E28831203131F08C33904389F0088
:1000C8009F149F186828692865281E08B400B50180
:1000D8003408BA003508BB003B08A9003A08A80054
:1000E8000030AA00AB00FF30AC000030AD007D301E
:1000F800AE000030AF00FA30B0000030B1000A1294
:100108008A1182210A128A11831203132908BD0059
:100118002808BC003C089B001A3083120313B50062
:10012800F730B400B40B9628B50B96289B28831299
:1001380003131F08C33908389F009F149F18A52868
:10014800A628A2281E08BE001A3083120313B50081
:10015800F730B400B40BAE28B50BAE28B32823286B
:100168000A128A110C2883120313A501A11FBD28A6
:10017800BE28C528A009A109A00A0319A10AA5013A
:10018800A50AA31FC828C928D228A209A309A20A18
:100198000319A30A0130F9007908A506A601A701E9
:1001A800200821040319D928DA281129A401A40A4E
:1001B800E82801300310A00DA10DFF3E031DDE2825
:1001C8000130F9007908A407A11FEB28EC28DD28E5
:1001D80001300310A60DA70DFF3E031DED282108D1
:1001E8002302031DF92820082202031CFC28FD28ED
:1001F80004292008A2022108031CA303A302261431
:1002080001300310A10CA00CFF3E031D052901308D
:10021800A402031D10291129EC2825080319152902
:1002280016291B29A609A709A60A0319A70A270838
:10023800A1002608A0000800831603178801890179
:100248008316031386018701880170308F040F1409
:10025800811281110108F83903388100C8308312EE
:10026800031381000B118B160B178B1783160317BB
:1002780008148814831603130514851483120313B2
:100288001F083F3980389F000330F4009730F3008F
:10029800F30B4C29F40B4C295129831603139F1394
:1002A8001F129F12831203131F140C1383160313B8
:1002B80007158714FA3092003F308312031397050D
:1002C8001708F0390C3897001D08F0390C389D00D4
:1002D8000F3095000F309B00971217129D121D12B8
:1002E8008C100330920412158C1C7B297C297829E8
:1002F8008C10831603130711871008008312031349
:100308002A082C02A0002B08031C2B0A2D02A1008E
:100318002A082802F3002B08031C2B0A2902F400E0
:100328002E083002F5002F08031C2F0A3102F600B0
:100338000A128A11BB210A128A1174088312031344
:10034800A3007308A2000A128A11B7200A128A11A0
:10035800831203132E082007B2002F0803182F0A50
:100368002107B3003308A9003208A8000800F701E4
:10037800F801731CC029C129C7297508F707031894
:10038800F80A7608F80701300310F50DF60DFF3E60
:10039800031DC82901300310F40CF30CFF3E031DA4
:1003A800CF2973087404031DDA29DB29BD297808CD
:1003B800F4007708F30008000B1DE329E429F62967
:1003C8000130F0007008FA07831203133E087A021E
:1003D8000318EF29F029F2298715F3298711063028
:1003E80081000B1172088A00710E8300FE0E7E0ECA
:0203F8000900FA
:08400000FF3FFF3FFF3FFF3FC0
:04400E00D420FF3F7C
:00000001FF
